{
  "transactions": [
    {
      "hash": null,
      "transactionType": "CREATE",
      "contractName": "UserRegistry",
      "contractAddress": "0x40bfec5dee98beba33c9d3eac8991b6d0c694b2d",
      "function": null,
      "arguments": [
        "0x18F33CEf45817C428d98C4E188A770191fDD4B79",
        "/users"
      ],
      "transaction": {
        "from": "0x18f33cef45817c428d98c4e188a770191fdd4b79",
        "gas": "0x1ecaff",
        "value": "0x0",
        "input": "0x60806040527fd35252e69c2dfd0847208c44c35ab2d90deb3426f1979db31d6a79414b54bdbb600155348015610033575f80fd5b50604051611c74380380611c748339810160408190526100529161013c565b600461005e8282610289565b506100695f8361007f565b50600154610077908361007f565b505050610348565b5f828152602081815260408083206001600160a01b038516845290915281205460ff1661011f575f838152602081815260408083206001600160a01b03861684529091529020805460ff191660011790556100d73390565b6001600160a01b0316826001600160a01b0316847f2f8788117e7eff1d82e926ec794901d17c78024a50270940304540a733656f0d60405160405180910390a4506001610122565b505f5b92915050565b634e487b7160e01b5f52604160045260245ffd5b5f806040838503121561014d575f80fd5b82516001600160a01b0381168114610163575f80fd5b60208401519092506001600160401b038082111561017f575f80fd5b818501915085601f830112610192575f80fd5b8151818111156101a4576101a4610128565b604051601f8201601f19908116603f011681019083821181831017156101cc576101cc610128565b816040528281528860208487010111156101e4575f80fd5b8260208601602083015e5f6020848301015280955050505050509250929050565b600181811c9082168061021957607f821691505b60208210810361023757634e487b7160e01b5f52602260045260245ffd5b50919050565b601f82111561028457805f5260205f20601f840160051c810160208510156102625750805b601f840160051c820191505b81811015610281575f815560010161026e565b50505b505050565b81516001600160401b038111156102a2576102a2610128565b6102b6816102b08454610205565b8461023d565b602080601f8311600181146102e9575f84156102d25750858301515b5f19600386901b1c1916600185901b178555610340565b5f85815260208120601f198616915b82811015610317578886015182559484019460019091019084016102f8565b508582101561033457878501515f19600388901b60f8161c191681555b505060018460011b0185555b505050505050565b61191f806103555f395ff3fe608060405234801561000f575f80fd5b506004361061011c575f3560e01c80634985e85c116100a9578063a217fddf1161006e578063a217fddf14610287578063a8b8e5ff1461028e578063bb20cb9e146102a1578063d547741f146102b4578063eda81849146102c7575f80fd5b80634985e85c14610219578063600cee78146102445780637284e416146102575780638ad257b71461025f57806391d1485414610274575f80fd5b806331feb671116100ef57806331feb671146101a057806336568abe146101c057806339ef7791146101d35780633cec933e146101e65780634635fd68146101f9575f80fd5b806301ffc9a714610120578063234e0d6514610148578063248a9ca31461015d5780632f2ff15d1461018d575b5f80fd5b61013361012e36600461100f565b6102ea565b60405190151581526020015b60405180910390f35b61015b6101563660046110da565b6102fa565b005b61017f61016b36600461111c565b5f9081526020819052604090206001015490565b60405190815260200161013f565b61015b61019b366004611147565b610319565b6101b36101ae366004611175565b610343565b60405161013f9190611233565b61015b6101ce366004611147565b6104cc565b61015b6101e1366004611245565b610504565b61015b6101f43660046110da565b610716565b61020c61020736600461111c565b61074c565b60405161013f91906112a0565b61022c610227366004611175565b6107f2565b6040516001600160a01b03909116815260200161013f565b61015b610252366004611175565b61080f565b61020c6109b5565b6102676109c2565b60405161013f91906112b2565b610133610282366004611147565b610c01565b61017f5f81565b61015b61029c3660046110da565b610c29565b61017f6102af366004611175565b610c5a565b61015b6102c2366004611147565b610c6e565b6102da6102d5366004611175565b610c92565b60405161013f9493929190611314565b5f6102f482610ddb565b92915050565b60015461030681610e0f565b8161031084610e1c565b60030155505050565b5f8281526020819052604090206001015461033381610e0f565b61033d8383610e90565b50505050565b610375604051806080016040528060608152602001606081526020015f6001600160a01b031681526020015f81525090565b61037e82610e1c565b6040518060800160405290815f8201805461039890611355565b80601f01602080910402602001604051908101604052809291908181526020018280546103c490611355565b801561040f5780601f106103e65761010080835404028352916020019161040f565b820191905f5260205f20905b8154815290600101906020018083116103f257829003601f168201915b5050505050815260200160018201805461042890611355565b80601f016020809104026020016040519081016040528092919081815260200182805461045490611355565b801561049f5780601f106104765761010080835404028352916020019161049f565b820191905f5260205f20905b81548152906001019060200180831161048257829003601f168201915b505050918352505060028201546001600160a01b0316602082015260039091015460409091015292915050565b6001600160a01b03811633146104f55760405163334bd91960e11b815260040160405180910390fd5b6104ff8282610f1f565b505050565b60015461051081610e0f565b5f6105216060840160408501611387565b6001600160a01b03160361057c5760405162461bcd60e51b815260206004820152601a60248201527f55736572206163636f756e742063616e6e6f742062652030783000000000000060448201526064015b60405180910390fd5b5f61058a60208401846113a2565b9050116105d95760405162461bcd60e51b815260206004820152601d60248201527f55736572206e69636b6e616d652063616e6e6f7420626520656d7074790000006044820152606401610573565b5f6001600160a01b03166002846040516105f391906113ec565b908152604051908190036020019020600201546001600160a01b0316146106525760405162461bcd60e51b81526020600482015260136024820152725573657220616c72656164792065786973747360681b6044820152606401610573565b8160028460405161066391906113ec565b90815260405190819003602001902061067c8282611522565b5050600380546001810182555f919091527fc2575a0e9e593c00f959f8c92f12db2869c3395a3b0502d05e2516446f71f85b016106b9848261163d565b507f2c862d7d006208c4cde0c5322f46be51764e818f89a48b112599bdff9a029f78836106e960208501856113a2565b6106f96060870160408801611387565b60405161070994939291906116f8565b60405180910390a1505050565b60015461072281610e0f565b5f61072c84610e1c565b90505f83826003015461073f919061175f565b9050600390910155505050565b6003818154811061075b575f80fd5b905f5260205f20015f91509050805461077390611355565b80601f016020809104026020016040519081016040528092919081815260200182805461079f90611355565b80156107ea5780601f106107c1576101008083540402835291602001916107ea565b820191905f5260205f20905b8154815290600101906020018083116107cd57829003601f168201915b505050505081565b5f6107fc82610e1c565b600201546001600160a01b031692915050565b60015461081b81610e0f565b61082482610e1c565b5060028260405161083591906113ec565b9081526040519081900360200190205f61084f8282610fc5565b61085c600183015f610fc5565b506002810180546001600160a01b03191690555f60039091018190555b600354811015610979578260405160200161089491906113ec565b60405160208183030381529060405280519060200120600382815481106108bd576108bd611772565b905f5260205f20016040516020016108d59190611786565b604051602081830303815290604052805190602001200361097157600380546109009060019061175f565b8154811061091057610910611772565b905f5260205f20016003828154811061092b5761092b611772565b905f5260205f2001908161093f91906117f8565b506003805480610951576109516118c2565b600190038181905f5260205f20015f61096a9190610fc5565b9055610979565b600101610879565b507f5b8514bf599ab0e7b72a3b2d47ae13677daa88ebbf833cea7bad37b6df49ede3826040516109a991906112a0565b60405180910390a15050565b6004805461077390611355565b6003546060905f9067ffffffffffffffff8111156109e2576109e261103d565b604051908082528060200260200182016040528015610a4557816020015b610a32604051806080016040528060608152602001606081526020015f6001600160a01b031681526020015f81525090565b815260200190600190039081610a005790505b5090505f5b600354811015610bfb57600260038281548110610a6957610a69611772565b905f5260205f2001604051610a7e9190611786565b90815260200160405180910390206040518060800160405290815f82018054610aa690611355565b80601f0160208091040260200160405190810160405280929190818152602001828054610ad290611355565b8015610b1d5780601f10610af457610100808354040283529160200191610b1d565b820191905f5260205f20905b815481529060010190602001808311610b0057829003601f168201915b50505050508152602001600182018054610b3690611355565b80601f0160208091040260200160405190810160405280929190818152602001828054610b6290611355565b8015610bad5780601f10610b8457610100808354040283529160200191610bad565b820191905f5260205f20905b815481529060010190602001808311610b9057829003601f168201915b505050918352505060028201546001600160a01b031660208201526003909101546040909101528251839083908110610be857610be8611772565b6020908102919091010152600101610a4a565b50919050565b5f918252602082815260408084206001600160a01b0393909316845291905290205460ff1690565b600154610c3581610e0f565b81610c3f84610e1c565b6003015f828254610c5091906118d6565b9091555050505050565b5f610c6482610e1c565b6003015492915050565b5f82815260208190526040902060010154610c8881610e0f565b61033d8383610f1f565b8051602081830181018051600282529282019190930120915280548190610cb890611355565b80601f0160208091040260200160405190810160405280929190818152602001828054610ce490611355565b8015610d2f5780601f10610d0657610100808354040283529160200191610d2f565b820191905f5260205f20905b815481529060010190602001808311610d1257829003601f168201915b505050505090806001018054610d4490611355565b80601f0160208091040260200160405190810160405280929190818152602001828054610d7090611355565b8015610dbb5780601f10610d9257610100808354040283529160200191610dbb565b820191905f5260205f20905b815481529060010190602001808311610d9e57829003601f168201915b50505050600283015460039093015491926001600160a01b031691905084565b5f6001600160e01b03198216637965db0b60e01b14806102f457506301ffc9a760e01b6001600160e01b03198316146102f4565b610e198133610f88565b50565b5f80600283604051610e2e91906113ec565b90815260405190819003602001902060028101549091506001600160a01b03166102f45760405162461bcd60e51b8152602060048201526013602482015272155cd95c88191bd95cc81b9bdd08195e1a5cdd606a1b6044820152606401610573565b5f610e9b8383610c01565b610f18575f838152602081815260408083206001600160a01b03861684529091529020805460ff19166001179055610ed03390565b6001600160a01b0316826001600160a01b0316847f2f8788117e7eff1d82e926ec794901d17c78024a50270940304540a733656f0d60405160405180910390a45060016102f4565b505f6102f4565b5f610f2a8383610c01565b15610f18575f838152602081815260408083206001600160a01b0386168085529252808320805460ff1916905551339286917ff6391f5c32d9c69d2a47ea670b442974b53935d1edc7fd64eb21e047a839171b9190a45060016102f4565b610f928282610c01565b610fc15760405163e2517d3f60e01b81526001600160a01b038216600482015260248101839052604401610573565b5050565b508054610fd190611355565b5f825580601f10610fe0575050565b601f0160209004905f5260205f2090810190610e1991905b8082111561100b575f8155600101610ff8565b5090565b5f6020828403121561101f575f80fd5b81356001600160e01b031981168114611036575f80fd5b9392505050565b634e487b7160e01b5f52604160045260245ffd5b5f82601f830112611060575f80fd5b813567ffffffffffffffff8082111561107b5761107b61103d565b604051601f8301601f19908116603f011681019082821181831017156110a3576110a361103d565b816040528381528660208588010111156110bb575f80fd5b836020870160208301375f602085830101528094505050505092915050565b5f80604083850312156110eb575f80fd5b823567ffffffffffffffff811115611101575f80fd5b61110d85828601611051565b95602094909401359450505050565b5f6020828403121561112c575f80fd5b5035919050565b6001600160a01b0381168114610e19575f80fd5b5f8060408385031215611158575f80fd5b82359150602083013561116a81611133565b809150509250929050565b5f60208284031215611185575f80fd5b813567ffffffffffffffff81111561119b575f80fd5b6111a784828501611051565b949350505050565b5f81518084528060208401602086015e5f602082860101526020601f19601f83011685010191505092915050565b5f8151608084526111f160808501826111af565b90506020830151848203602086015261120a82826111af565b6040858101516001600160a01b0316908701526060948501519490950193909352509192915050565b602081525f61103660208301846111dd565b5f8060408385031215611256575f80fd5b823567ffffffffffffffff8082111561126d575f80fd5b61127986838701611051565b9350602085013591508082111561128e575f80fd5b5083016080818603121561116a575f80fd5b602081525f61103660208301846111af565b5f60208083016020845280855180835260408601915060408160051b8701019250602087015f5b8281101561130757603f198886030184526112f58583516111dd565b945092850192908501906001016112d9565b5092979650505050505050565b608081525f61132660808301876111af565b828103602084015261133881876111af565b6001600160a01b0395909516604084015250506060015292915050565b600181811c9082168061136957607f821691505b602082108103610bfb57634e487b7160e01b5f52602260045260245ffd5b5f60208284031215611397575f80fd5b813561103681611133565b5f808335601e198436030181126113b7575f80fd5b83018035915067ffffffffffffffff8211156113d1575f80fd5b6020019150368190038213156113e5575f80fd5b9250929050565b5f82518060208501845e5f920191825250919050565b601f8211156104ff57805f5260205f20601f840160051c810160208510156114275750805b601f840160051c820191505b81811015611446575f8155600101611433565b5050505050565b5f19600383901b1c191660019190911b1790565b67ffffffffffffffff8311156114795761147961103d565b61148d836114878354611355565b83611402565b5f601f8411600181146114b9575f85156114a75750838201355b6114b1868261144d565b845550611446565b5f83815260208120601f198716915b828110156114e857868501358255602094850194600190920191016114c8565b5086821015611504575f1960f88860031b161c19848701351681555b505060018560011b0183555050505050565b5f81356102f481611133565b61152c82836113a2565b67ffffffffffffffff8111156115445761154461103d565b611558816115528554611355565b85611402565b5f601f821160018114611584575f83156115725750838201355b61157c848261144d565b8655506115db565b5f85815260208120601f198516915b828110156115b35786850135825560209485019460019092019101611593565b50848210156115cf575f1960f88660031b161c19848701351681555b505060018360011b0185555b505050506115ec60208301836113a2565b6115fa818360018601611461565b505061162f61160b60408401611516565b6002830180546001600160a01b0319166001600160a01b0392909216919091179055565b606082013560038201555050565b815167ffffffffffffffff8111156116575761165761103d565b61166b816116658454611355565b84611402565b602080601f831160018114611699575f84156116875750858301515b611691858261144d565b8655506116f0565b5f85815260208120601f198616915b828110156116c7578886015182559484019460019091019084016116a8565b50858210156116e457878501515f19600388901b60f8161c191681555b505060018460011b0185555b505050505050565b606081525f61170a60608301876111af565b8281036020840152848152848660208301375f602086830101526020601f19601f87011682010191505060018060a01b038316604083015295945050505050565b634e487b7160e01b5f52601160045260245ffd5b818103818111156102f4576102f461174b565b634e487b7160e01b5f52603260045260245ffd5b5f80835461179381611355565b600182811680156117ab57600181146117c0576117ec565b60ff19841687528215158302870194506117ec565b875f526020805f205f5b858110156117e35781548a8201529084019082016117ca565b50505082870194505b50929695505050505050565b818103611803575050565b61180d8254611355565b67ffffffffffffffff8111156118255761182561103d565b611833816116658454611355565b5f601f82116001811461185f575f831561184d5750848201545b611857848261144d565b855550611446565b5f8581526020808220868352908220601f198616925b838110156118955782860154825560019586019590910190602001611875565b50858310156118b257818501545f19600388901b60f8161c191681555b5050505050600190811b01905550565b634e487b7160e01b5f52603160045260245ffd5b808201808211156102f4576102f461174b56fea264697066735822122024f59aa4e7a39bfdf9d4858bdc3efb272cc03e0b7d0a32ef1db3a63b320b2da164736f6c6343000819003300000000000000000000000018f33cef45817c428d98c4e188a770191fdd4b79000000000000000000000000000000000000000000000000000000000000004000000000000000000000000000000000000000000000000000000000000000062f75736572730000000000000000000000000000000000000000000000000000",
        "nonce": "0xb1",
        "chainId": "0x2105"
      },
      "additionalContracts": [],
      "isFixedGasLimit": false
    },
    {
      "hash": null,
      "transactionType": "CREATE",
      "contractName": "SlashTip",
      "contractAddress": "0xe604ee205952d3fa43567b2eba4bd28c3d556645",
      "function": null,
      "arguments": [
        "0x18F33CEf45817C428d98C4E188A770191fDD4B79",
        "0x40bfEc5DEe98beba33C9d3eac8991b6d0c694B2d",
        "0xA19e91f5c794BBe0632cC14bB51Db434573246e2",
        "/tip"
      ],
      "transaction": {
        "from": "0x18f33cef45817c428d98c4e188a770191fdd4b79",
        "gas": "0x1bd64b",
        "value": "0x0",
        "input": "0x60806040527f933edc20355f029ef1a1a3f4a07360a049c24374a0c063408f65b31f46ab5553600155348015610033575f80fd5b5060405161194a38038061194a83398101604081905261005291610189565b61005c5f856100b1565b5060015461006a90856100b1565b50600380546001600160a01b038086166001600160a01b031992831617909255600480549285169290911691909117905560026100a782826102e9565b50505050506103a8565b5f828152602081815260408083206001600160a01b038516845290915281205460ff16610151575f838152602081815260408083206001600160a01b03861684529091529020805460ff191660011790556101093390565b6001600160a01b0316826001600160a01b0316847f2f8788117e7eff1d82e926ec794901d17c78024a50270940304540a733656f0d60405160405180910390a4506001610154565b505f5b92915050565b80516001600160a01b0381168114610170575f80fd5b919050565b634e487b7160e01b5f52604160045260245ffd5b5f805f806080858703121561019c575f80fd5b6101a58561015a565b93506101b36020860161015a565b92506101c16040860161015a565b60608601519092506001600160401b03808211156101dd575f80fd5b818701915087601f8301126101f0575f80fd5b81518181111561020257610202610175565b604051601f8201601f19908116603f0116810190838211818310171561022a5761022a610175565b816040528281528a6020848701011115610242575f80fd5b8260208601602083015e5f60208483010152809550505050505092959194509250565b600181811c9082168061027957607f821691505b60208210810361029757634e487b7160e01b5f52602260045260245ffd5b50919050565b601f8211156102e457805f5260205f20601f840160051c810160208510156102c25750805b601f840160051c820191505b818110156102e1575f81556001016102ce565b50505b505050565b81516001600160401b0381111561030257610302610175565b610316816103108454610265565b8461029d565b602080601f831160018114610349575f84156103325750858301515b5f19600386901b1c1916600185901b1785556103a0565b5f85815260208120601f198616915b8281101561037757888601518255948401946001909101908401610358565b508582101561039457878501515f19600388901b60f8161c191681555b505060018460011b0185555b505050505050565b611595806103b55f395ff3fe608060405234801561000f575f80fd5b5060043610610111575f3560e01c80637284e4161161009e578063bf3683991161006e578063bf3683991461024e578063cfd6d54f1461026e578063d547741f14610281578063e3540d9d14610294578063e9dda5a3146102a7575f80fd5b80637284e4161461020c57806391d1485414610221578063a217fddf14610234578063b0d5451b1461023b575f80fd5b806338e00b6b116100e457806338e00b6b146101955780635c7460d6146101a85780636ae8c6ac146101d35780636f049e20146101e6578063720a50ab146101f9575f80fd5b806301ffc9a714610115578063248a9ca31461013d5780632f2ff15d1461016d57806336568abe14610182575b5f80fd5b610128610123366004610ed9565b6102ba565b60405190151581526020015b60405180910390f35b61015f61014b366004610f00565b5f9081526020819052604090206001015490565b604051908152602001610134565b61018061017b366004610f2b565b6102f0565b005b610180610190366004610f2b565b61031a565b6101806101a336600461101e565b610352565b6003546101bb906001600160a01b031681565b6040516001600160a01b039091168152602001610134565b6101806101e1366004610f00565b6105ca565b6004546101bb906001600160a01b031681565b610180610207366004610f00565b6106db565b6102146107ec565b60405161013491906110f4565b61012861022f366004610f2b565b610878565b61015f5f81565b610180610249366004611106565b6108a0565b61026161025c366004610f00565b6108cf565b6040516101349190611121565b61015f61027c3660046111dc565b610bd4565b61018061028f366004610f2b565b610c4f565b6101806102a2366004611106565b610c73565b61015f6102b5366004611216565b610ca2565b5f6001600160e01b03198216637965db0b60e01b14806102ea57506301ffc9a760e01b6001600160e01b03198316145b92915050565b5f8281526020819052604090206001015461030a81610d97565b6103148383610da4565b50505050565b6001600160a01b03811633146103435760405163334bd91960e11b815260040160405180910390fd5b61034d8282610e33565b505050565b60015461035e81610d97565b6003546040516331feb67160e01b81525f916001600160a01b0316906331feb6719061038e908a906004016110f4565b5f60405180830381865afa1580156103a8573d5f803e3d5ffd5b505050506040513d5f823e601f3d908101601f191682016040526103cf9190810190611348565b9050838160600151101561042a5760405162461bcd60e51b815260206004820152601e60248201527f496e73756666696369656e7420616c6c6f77616e636520746f206d696e74000060448201526064015b60405180910390fd5b600354604051631e76499f60e11b81526001600160a01b0390911690633cec933e9061045c908a90889060040161137a565b5f604051808303815f87803b158015610473575f80fd5b505af1158015610485573d5f803e3d5ffd5b50506003546040516331feb67160e01b81525f93506001600160a01b0390911691506331feb671906104bb908a906004016110f4565b5f60405180830381865afa1580156104d5573d5f803e3d5ffd5b505050506040513d5f823e601f3d908101601f191682016040526104fc9190810190611348565b60048054604080840151905163731133e960e01b81529394506001600160a01b039091169263731133e99261053892918b918b918b910161139b565b5f604051808303815f87803b15801561054f575f80fd5b505af1158015610561573d5f803e3d5ffd5b5050505080604001516001600160a01b031682604001516001600160a01b03167f7f64e422fb6d7a083b6d8cf369a66633c2a4d9061b2ed951124ea8429a062edc8a8a8a8a8a6040516105b89594939291906113d1565b60405180910390a35050505050505050565b6001546105d681610d97565b60035460408051638ad257b760e01b815290515f926001600160a01b031691638ad257b791600480830192869291908290030181865afa15801561061c573d5f803e3d5ffd5b505050506040513d5f823e601f3d908101601f191682016040526106439190810190611421565b90505f5b81518110156103145760035482516001600160a01b039091169063234e0d6590849084908110610679576106796114dd565b60200260200101515f0151866040518363ffffffff1660e01b81526004016106a292919061137a565b5f604051808303815f87803b1580156106b9575f80fd5b505af11580156106cb573d5f803e3d5ffd5b5050600190920191506106479050565b6001546106e781610d97565b60035460408051638ad257b760e01b815290515f926001600160a01b031691638ad257b791600480830192869291908290030181865afa15801561072d573d5f803e3d5ffd5b505050506040513d5f823e601f3d908101601f191682016040526107549190810190611421565b90505f5b81518110156103145760035482516001600160a01b039091169063a8b8e5ff9084908490811061078a5761078a6114dd565b60200260200101515f0151866040518363ffffffff1660e01b81526004016107b392919061137a565b5f604051808303815f87803b1580156107ca575f80fd5b505af11580156107dc573d5f803e3d5ffd5b5050600190920191506107589050565b600280546107f9906114f1565b80601f0160208091040260200160405190810160405280929190818152602001828054610825906114f1565b80156108705780601f1061084757610100808354040283529160200191610870565b820191905f5260205f20905b81548152906001019060200180831161085357829003601f168201915b505050505081565b5f918252602082815260408084206001600160a01b0393909316845291905290205460ff1690565b6001546108ac81610d97565b50600380546001600160a01b0319166001600160a01b0392909216919091179055565b60605f60035f9054906101000a90046001600160a01b03166001600160a01b0316638ad257b76040518163ffffffff1660e01b81526004015f60405180830381865afa158015610921573d5f803e3d5ffd5b505050506040513d5f823e601f3d908101601f191682016040526109489190810190611421565b90505f815167ffffffffffffffff81111561096557610965610f59565b6040519080825280602002602001820160405280156109ce57816020015b6109bb6040805160c0810182526060918101828152828201929092525f6080820181905260a082015290819081526020015f81525090565b8152602001906001900390816109835790505b5090505f5b8251811015610ae1578281815181106109ee576109ee6114dd565b6020026020010151828281518110610a0857610a086114dd565b60209081029190910101515260045483516001600160a01b039091169062fdd58e90859084908110610a3c57610a3c6114dd565b602002602001015160400151876040518363ffffffff1660e01b8152600401610a7a9291906001600160a01b03929092168252602082015260400190565b602060405180830381865afa158015610a95573d5f803e3d5ffd5b505050506040513d601f19601f82011682018060405250810190610ab99190611529565b828281518110610acb57610acb6114dd565b60209081029190910181015101526001016109d3565b505f5b8151811015610bcc575f610af9826001611540565b90505b8251811015610bc357828181518110610b1757610b176114dd565b602002602001015160200151838381518110610b3557610b356114dd565b6020026020010151602001511015610bbb575f838381518110610b5a57610b5a6114dd565b60200260200101519050838281518110610b7657610b766114dd565b6020026020010151848481518110610b9057610b906114dd565b602002602001018190525080848381518110610bae57610bae6114dd565b6020026020010181905250505b600101610afc565b50600101610ae4565b509392505050565b6003546040516331feb67160e01b81525f916001600160a01b0316906331feb67190610c049085906004016110f4565b5f60405180830381865afa158015610c1e573d5f803e3d5ffd5b505050506040513d5f823e601f3d908101601f19168201604052610c459190810190611348565b6060015192915050565b5f82815260208190526040902060010154610c6981610d97565b6103148383610e33565b600154610c7f81610d97565b50600480546001600160a01b0319166001600160a01b0392909216919091179055565b600480546003546040516331feb67160e01b81525f936001600160a01b039384169362fdd58e9316916331feb67191610cdd918991016110f4565b5f60405180830381865afa158015610cf7573d5f803e3d5ffd5b505050506040513d5f823e601f3d908101601f19168201604052610d1e9190810190611348565b60409081015190516001600160e01b031960e084901b1681526001600160a01b03909116600482015260248101859052604401602060405180830381865afa158015610d6c573d5f803e3d5ffd5b505050506040513d601f19601f82011682018060405250810190610d909190611529565b9392505050565b610da18133610e9c565b50565b5f610daf8383610878565b610e2c575f838152602081815260408083206001600160a01b03861684529091529020805460ff19166001179055610de43390565b6001600160a01b0316826001600160a01b0316847f2f8788117e7eff1d82e926ec794901d17c78024a50270940304540a733656f0d60405160405180910390a45060016102ea565b505f6102ea565b5f610e3e8383610878565b15610e2c575f838152602081815260408083206001600160a01b0386168085529252808320805460ff1916905551339286917ff6391f5c32d9c69d2a47ea670b442974b53935d1edc7fd64eb21e047a839171b9190a45060016102ea565b610ea68282610878565b610ed55760405163e2517d3f60e01b81526001600160a01b038216600482015260248101839052604401610421565b5050565b5f60208284031215610ee9575f80fd5b81356001600160e01b031981168114610d90575f80fd5b5f60208284031215610f10575f80fd5b5035919050565b6001600160a01b0381168114610da1575f80fd5b5f8060408385031215610f3c575f80fd5b823591506020830135610f4e81610f17565b809150509250929050565b634e487b7160e01b5f52604160045260245ffd5b604051601f8201601f1916810167ffffffffffffffff81118282101715610f9657610f96610f59565b604052919050565b5f67ffffffffffffffff821115610fb757610fb7610f59565b50601f01601f191660200190565b5f610fd7610fd284610f9e565b610f6d565b9050828152838383011115610fea575f80fd5b828260208301375f602084830101529392505050565b5f82601f83011261100f575f80fd5b610d9083833560208501610fc5565b5f805f805f60a08688031215611032575f80fd5b853567ffffffffffffffff80821115611049575f80fd5b61105589838a01611000565b9650602088013591508082111561106a575f80fd5b61107689838a01611000565b955060408801359450606088013593506080880135915080821115611099575f80fd5b508601601f810188136110aa575f80fd5b6110b988823560208401610fc5565b9150509295509295909350565b5f81518084528060208401602086015e5f602082860101526020601f19601f83011685010191505092915050565b602081525f610d9060208301846110c6565b5f60208284031215611116575f80fd5b8135610d9081610f17565b5f60208083018184528085518083526040925060408601915060408160051b8701018488015f5b838110156111ce57603f19808a85030186528251805188865280516080808b89015261117760c08901836110c6565b91508b8301516060868a850301818b015261119284836110c6565b858e01516001600160a01b0316938b01939093529093015160a0890152928b0151968b0196909652509588019593505090860190600101611148565b509098975050505050505050565b5f602082840312156111ec575f80fd5b813567ffffffffffffffff811115611202575f80fd5b61120e84828501611000565b949350505050565b5f8060408385031215611227575f80fd5b823567ffffffffffffffff81111561123d575f80fd5b61124985828601611000565b95602094909401359450505050565b5f82601f830112611267575f80fd5b8151611275610fd282610f9e565b818152846020838601011115611289575f80fd5b8160208501602083015e5f918101602001919091529392505050565b5f608082840312156112b5575f80fd5b6040516080810167ffffffffffffffff82821081831117156112d9576112d9610f59565b8160405282935084519150808211156112f0575f80fd5b6112fc86838701611258565b83526020850151915080821115611311575f80fd5b5061131e85828601611258565b602083015250604083015161133281610f17565b6040820152606092830151920191909152919050565b5f60208284031215611358575f80fd5b815167ffffffffffffffff81111561136e575f80fd5b61120e848285016112a5565b604081525f61138c60408301856110c6565b90508260208301529392505050565b60018060a01b0385168152836020820152826040820152608060608201525f6113c760808301846110c6565b9695505050505050565b60a081525f6113e360a08301886110c6565b82810360208401526113f581886110c6565b9050856040840152846060840152828103608084015261141581856110c6565b98975050505050505050565b5f6020808385031215611432575f80fd5b825167ffffffffffffffff80821115611449575f80fd5b818501915085601f83011261145c575f80fd5b81518181111561146e5761146e610f59565b8060051b61147d858201610f6d565b9182528381018501918581019089841115611496575f80fd5b86860192505b838310156114d0578251858111156114b2575f80fd5b6114c08b89838a01016112a5565b835250918601919086019061149c565b9998505050505050505050565b634e487b7160e01b5f52603260045260245ffd5b600181811c9082168061150557607f821691505b60208210810361152357634e487b7160e01b5f52602260045260245ffd5b50919050565b5f60208284031215611539575f80fd5b5051919050565b808201808211156102ea57634e487b7160e01b5f52601160045260245ffdfea2646970667358221220cb273c5e49964374b9432d0d6b983e0a3eefde5a518087dd2ede3c87fd76a53864736f6c6343000819003300000000000000000000000018f33cef45817c428d98c4e188a770191fdd4b7900000000000000000000000040bfec5dee98beba33c9d3eac8991b6d0c694b2d000000000000000000000000a19e91f5c794bbe0632cc14bb51db434573246e2000000000000000000000000000000000000000000000000000000000000008000000000000000000000000000000000000000000000000000000000000000042f74697000000000000000000000000000000000000000000000000000000000",
        "nonce": "0xb2",
        "chainId": "0x2105"
      },
      "additionalContracts": [],
      "isFixedGasLimit": false
    },
    {
      "hash": null,
      "transactionType": "CALL",
      "contractName": "SlashTip",
      "contractAddress": "0xe604ee205952d3fa43567b2eba4bd28c3d556645",
      "function": "grantRole(bytes32,address)",
      "arguments": [
        "0x933edc20355f029ef1a1a3f4a07360a049c24374a0c063408f65b31f46ab5553",
        "0xE7129298AE18FD2f4862E9a25D40CE333b11c583"
      ],
      "transaction": {
        "from": "0x18f33cef45817c428d98c4e188a770191fdd4b79",
        "to": "0xe604ee205952d3fa43567b2eba4bd28c3d556645",
        "gas": "0x12640",
        "value": "0x0",
        "input": "0x2f2ff15d933edc20355f029ef1a1a3f4a07360a049c24374a0c063408f65b31f46ab5553000000000000000000000000e7129298ae18fd2f4862e9a25d40ce333b11c583",
        "nonce": "0xb3",
        "chainId": "0x2105"
      },
      "additionalContracts": [],
      "isFixedGasLimit": false
    },
    {
      "hash": null,
      "transactionType": "CALL",
      "contractName": null,
      "contractAddress": "0xa19e91f5c794bbe0632cc14bb51db434573246e2",
      "function": "grantRole(bytes32,address)",
      "arguments": [
        "0x21a0c868dcce807caaf523bae4e29fd5a48ea7223acaaa50c74399f91b98c2ad",
        "0xe604ee205952D3fa43567b2EBa4bD28c3D556645"
      ],
      "transaction": {
        "from": "0x18f33cef45817c428d98c4e188a770191fdd4b79",
        "to": "0xa19e91f5c794bbe0632cc14bb51db434573246e2",
        "gas": "0x12633",
        "value": "0x0",
        "input": "0x2f2ff15d21a0c868dcce807caaf523bae4e29fd5a48ea7223acaaa50c74399f91b98c2ad000000000000000000000000e604ee205952d3fa43567b2eba4bd28c3d556645",
        "nonce": "0xb4",
        "chainId": "0x2105"
      },
      "additionalContracts": [],
      "isFixedGasLimit": false
    },
    {
      "hash": null,
      "transactionType": "CALL",
      "contractName": "UserRegistry",
      "contractAddress": "0x40bfec5dee98beba33c9d3eac8991b6d0c694b2d",
      "function": "grantRole(bytes32,address)",
      "arguments": [
        "0xd35252e69c2dfd0847208c44c35ab2d90deb3426f1979db31d6a79414b54bdbb",
        "0xE7129298AE18FD2f4862E9a25D40CE333b11c583"
      ],
      "transaction": {
        "from": "0x18f33cef45817c428d98c4e188a770191fdd4b79",
        "to": "0x40bfec5dee98beba33c9d3eac8991b6d0c694b2d",
        "gas": "0x12661",
        "value": "0x0",
        "input": "0x2f2ff15dd35252e69c2dfd0847208c44c35ab2d90deb3426f1979db31d6a79414b54bdbb000000000000000000000000e7129298ae18fd2f4862e9a25d40ce333b11c583",
        "nonce": "0xb5",
        "chainId": "0x2105"
      },
      "additionalContracts": [],
      "isFixedGasLimit": false
    },
    {
      "hash": null,
      "transactionType": "CALL",
      "contractName": "UserRegistry",
      "contractAddress": "0x40bfec5dee98beba33c9d3eac8991b6d0c694b2d",
      "function": "addUser(string,(string,string,address,uint256))",
      "arguments": [
        "U06LPBU6A02",
        "(U06LPBU6A02, kristen, 0x8A05fA58d533a6e40C4381E3247Cf4c68ca61cdc, 491)"
      ],
      "transaction": {
        "from": "0x18f33cef45817c428d98c4e188a770191fdd4b79",
        "to": "0x40bfec5dee98beba33c9d3eac8991b6d0c694b2d",
        "gas": "0x3865e",
        "value": "0x0",
        "input": "0x39ef779100000000000000000000000000000000000000000000000000000000000000400000000000000000000000000000000000000000000000000000000000000080000000000000000000000000000000000000000000000000000000000000000b5530364c50425536413032000000000000000000000000000000000000000000000000000000000000000000000000000000000000000000000000000000008000000000000000000000000000000000000000000000000000000000000000c00000000000000000000000008a05fa58d533a6e40c4381e3247cf4c68ca61cdc00000000000000000000000000000000000000000000000000000000000001eb000000000000000000000000000000000000000000000000000000000000000b5530364c5042553641303200000000000000000000000000000000000000000000000000000000000000000000000000000000000000000000000000000000076b72697374656e00000000000000000000000000000000000000000000000000",
        "nonce": "0xb6",
        "chainId": "0x2105"
      },
      "additionalContracts": [],
      "isFixedGasLimit": false
    },
    {
      "hash": null,
      "transactionType": "CALL",
      "contractName": "UserRegistry",
      "contractAddress": "0x40bfec5dee98beba33c9d3eac8991b6d0c694b2d",
      "function": "addUser(string,(string,string,address,uint256))",
      "arguments": [
        "U04SXK2ADK3",
        "(U04SXK2ADK3, sam, 0x2aE5f36C77A736f76d61F3eEC06F12CAF2963fD6, 82)"
      ],
      "transaction": {
        "from": "0x18f33cef45817c428d98c4e188a770191fdd4b79",
        "to": "0x40bfec5dee98beba33c9d3eac8991b6d0c694b2d",
        "gas": "0x329c8",
        "value": "0x0",
        "input": "0x39ef779100000000000000000000000000000000000000000000000000000000000000400000000000000000000000000000000000000000000000000000000000000080000000000000000000000000000000000000000000000000000000000000000b55303453584b3241444b33000000000000000000000000000000000000000000000000000000000000000000000000000000000000000000000000000000008000000000000000000000000000000000000000000000000000000000000000c00000000000000000000000002ae5f36c77a736f76d61f3eec06f12caf2963fd60000000000000000000000000000000000000000000000000000000000000052000000000000000000000000000000000000000000000000000000000000000b55303453584b3241444b33000000000000000000000000000000000000000000000000000000000000000000000000000000000000000000000000000000000373616d0000000000000000000000000000000000000000000000000000000000",
        "nonce": "0xb7",
        "chainId": "0x2105"
      },
      "additionalContracts": [],
      "isFixedGasLimit": false
    },
    {
      "hash": null,
      "transactionType": "CALL",
      "contractName": "UserRegistry",
      "contractAddress": "0x40bfec5dee98beba33c9d3eac8991b6d0c694b2d",
      "function": "addUser(string,(string,string,address,uint256))",
      "arguments": [
        "U04T5FRG264",
        "(U04T5FRG264, eric, 0x4834a3c778F2d005B28a18c68d580Cc7F68c5Cbf, 269)"
      ],
      "transaction": {
        "from": "0x18f33cef45817c428d98c4e188a770191fdd4b79",
        "to": "0x40bfec5dee98beba33c9d3eac8991b6d0c694b2d",
        "gas": "0x329e9",
        "value": "0x0",
        "input": "0x39ef779100000000000000000000000000000000000000000000000000000000000000400000000000000000000000000000000000000000000000000000000000000080000000000000000000000000000000000000000000000000000000000000000b5530345435465247323634000000000000000000000000000000000000000000000000000000000000000000000000000000000000000000000000000000008000000000000000000000000000000000000000000000000000000000000000c00000000000000000000000004834a3c778f2d005b28a18c68d580cc7f68c5cbf000000000000000000000000000000000000000000000000000000000000010d000000000000000000000000000000000000000000000000000000000000000b553034543546524732363400000000000000000000000000000000000000000000000000000000000000000000000000000000000000000000000000000000046572696300000000000000000000000000000000000000000000000000000000",
        "nonce": "0xb8",
        "chainId": "0x2105"
      },
      "additionalContracts": [],
      "isFixedGasLimit": false
    },
    {
      "hash": null,
      "transactionType": "CALL",
      "contractName": "UserRegistry",
      "contractAddress": "0x40bfec5dee98beba33c9d3eac8991b6d0c694b2d",
      "function": "addUser(string,(string,string,address,uint256))",
      "arguments": [
        "U05PERZL30W",
        "(U05PERZL30W, daniil, 0x753f114DBbEed6070Db207EBc3f46cB3A106b1Ed, 556)"
      ],
      "transaction": {
        "from": "0x18f33cef45817c428d98c4e188a770191fdd4b79",
        "to": "0x40bfec5dee98beba33c9d3eac8991b6d0c694b2d",
        "gas": "0x32a0a",
        "value": "0x0",
        "input": "0x39ef779100000000000000000000000000000000000000000000000000000000000000400000000000000000000000000000000000000000000000000000000000000080000000000000000000000000000000000000000000000000000000000000000b5530355045525a4c333057000000000000000000000000000000000000000000000000000000000000000000000000000000000000000000000000000000008000000000000000000000000000000000000000000000000000000000000000c0000000000000000000000000753f114dbbeed6070db207ebc3f46cb3a106b1ed000000000000000000000000000000000000000000000000000000000000022c000000000000000000000000000000000000000000000000000000000000000b5530355045525a4c333057000000000000000000000000000000000000000000000000000000000000000000000000000000000000000000000000000000000664616e69696c0000000000000000000000000000000000000000000000000000",
        "nonce": "0xb9",
        "chainId": "0x2105"
      },
      "additionalContracts": [],
      "isFixedGasLimit": false
    },
    {
      "hash": null,
      "transactionType": "CALL",
      "contractName": "UserRegistry",
      "contractAddress": "0x40bfec5dee98beba33c9d3eac8991b6d0c694b2d",
      "function": "addUser(string,(string,string,address,uint256))",
      "arguments": [
        "U074409GE4U",
        "(U074409GE4U, kristina, 0x4F51804657F44386e4f67A6533fFC96390Dc45fC, 19)"
      ],
      "transaction": {
        "from": "0x18f33cef45817c428d98c4e188a770191fdd4b79",
        "to": "0x40bfec5dee98beba33c9d3eac8991b6d0c694b2d",
        "gas": "0x359c2",
        "value": "0x0",
        "input": "0x39ef779100000000000000000000000000000000000000000000000000000000000000400000000000000000000000000000000000000000000000000000000000000080000000000000000000000000000000000000000000000000000000000000000b5530373434303947453455000000000000000000000000000000000000000000000000000000000000000000000000000000000000000000000000000000008000000000000000000000000000000000000000000000000000000000000000c00000000000000000000000004f51804657f44386e4f67a6533ffc96390dc45fc0000000000000000000000000000000000000000000000000000000000000013000000000000000000000000000000000000000000000000000000000000000b553037343430394745345500000000000000000000000000000000000000000000000000000000000000000000000000000000000000000000000000000000086b72697374696e61000000000000000000000000000000000000000000000000",
        "nonce": "0xba",
        "chainId": "0x2105"
      },
      "additionalContracts": [],
      "isFixedGasLimit": false
    },
    {
      "hash": null,
      "transactionType": "CALL",
      "contractName": "UserRegistry",
      "contractAddress": "0x40bfec5dee98beba33c9d3eac8991b6d0c694b2d",
      "function": "addUser(string,(string,string,address,uint256))",
      "arguments": [
        "U04BAKQB7RQ",
        "(U04BAKQB7RQ, isaac, 0x7127d349A11D93C49D4E604167b1F7ff6aCfFFee, 52)"
      ],
      "transaction": {
        "from": "0x18f33cef45817c428d98c4e188a770191fdd4b79",
        "to": "0x40bfec5dee98beba33c9d3eac8991b6d0c694b2d",
        "gas": "0x329e9",
        "value": "0x0",
        "input": "0x39ef779100000000000000000000000000000000000000000000000000000000000000400000000000000000000000000000000000000000000000000000000000000080000000000000000000000000000000000000000000000000000000000000000b55303442414b5142375251000000000000000000000000000000000000000000000000000000000000000000000000000000000000000000000000000000008000000000000000000000000000000000000000000000000000000000000000c00000000000000000000000007127d349a11d93c49d4e604167b1f7ff6acfffee0000000000000000000000000000000000000000000000000000000000000034000000000000000000000000000000000000000000000000000000000000000b55303442414b514237525100000000000000000000000000000000000000000000000000000000000000000000000000000000000000000000000000000000056973616163000000000000000000000000000000000000000000000000000000",
        "nonce": "0xbb",
        "chainId": "0x2105"
      },
      "additionalContracts": [],
      "isFixedGasLimit": false
    },
    {
      "hash": null,
      "transactionType": "CALL",
      "contractName": "UserRegistry",
      "contractAddress": "0x40bfec5dee98beba33c9d3eac8991b6d0c694b2d",
      "function": "addUser(string,(string,string,address,uint256))",
      "arguments": [
        "U0320MF9BAT",
        "(U0320MF9BAT, justin, 0xd2Cb3CcC522B5D36A20334d101791eb3C3384281, 576)"
      ],
      "transaction": {
        "from": "0x18f33cef45817c428d98c4e188a770191fdd4b79",
        "to": "0x40bfec5dee98beba33c9d3eac8991b6d0c694b2d",
        "gas": "0x32a0a",
        "value": "0x0",
        "input": "0x39ef779100000000000000000000000000000000000000000000000000000000000000400000000000000000000000000000000000000000000000000000000000000080000000000000000000000000000000000000000000000000000000000000000b55303332304d4639424154000000000000000000000000000000000000000000000000000000000000000000000000000000000000000000000000000000008000000000000000000000000000000000000000000000000000000000000000c0000000000000000000000000d2cb3ccc522b5d36a20334d101791eb3c33842810000000000000000000000000000000000000000000000000000000000000240000000000000000000000000000000000000000000000000000000000000000b55303332304d463942415400000000000000000000000000000000000000000000000000000000000000000000000000000000000000000000000000000000066a757374696e0000000000000000000000000000000000000000000000000000",
        "nonce": "0xbc",
        "chainId": "0x2105"
      },
      "additionalContracts": [],
      "isFixedGasLimit": false
    },
    {
      "hash": null,
      "transactionType": "CALL",
      "contractName": "UserRegistry",
      "contractAddress": "0x40bfec5dee98beba33c9d3eac8991b6d0c694b2d",
      "function": "addUser(string,(string,string,address,uint256))",
      "arguments": [
        "U03R5TZPCHM",
        "(U03R5TZPCHM, gus, 0xBabe638215bBdD667E1bf86F27509E10896c96a6, 565)"
      ],
      "transaction": {
        "from": "0x18f33cef45817c428d98c4e188a770191fdd4b79",
        "to": "0x40bfec5dee98beba33c9d3eac8991b6d0c694b2d",
        "gas": "0x3597c",
        "value": "0x0",
        "input": "0x39ef779100000000000000000000000000000000000000000000000000000000000000400000000000000000000000000000000000000000000000000000000000000080000000000000000000000000000000000000000000000000000000000000000b5530335235545a5043484d000000000000000000000000000000000000000000000000000000000000000000000000000000000000000000000000000000008000000000000000000000000000000000000000000000000000000000000000c0000000000000000000000000babe638215bbdd667e1bf86f27509e10896c96a60000000000000000000000000000000000000000000000000000000000000235000000000000000000000000000000000000000000000000000000000000000b5530335235545a5043484d00000000000000000000000000000000000000000000000000000000000000000000000000000000000000000000000000000000036775730000000000000000000000000000000000000000000000000000000000",
        "nonce": "0xbd",
        "chainId": "0x2105"
      },
      "additionalContracts": [],
      "isFixedGasLimit": false
    },
    {
      "hash": null,
      "transactionType": "CALL",
      "contractName": "UserRegistry",
      "contractAddress": "0x40bfec5dee98beba33c9d3eac8991b6d0c694b2d",
      "function": "addUser(string,(string,string,address,uint256))",
      "arguments": [
        "U041LLJ8CS3",
        "(U041LLJ8CS3, will, 0x3Cbd57dA2F08b3268da07E5C9038C11861828637, 580)"
      ],
      "transaction": {
        "from": "0x18f33cef45817c428d98c4e188a770191fdd4b79",
        "to": "0x40bfec5dee98beba33c9d3eac8991b6d0c694b2d",
        "gas": "0x329e9",
        "value": "0x0",
        "input": "0x39ef779100000000000000000000000000000000000000000000000000000000000000400000000000000000000000000000000000000000000000000000000000000080000000000000000000000000000000000000000000000000000000000000000b553034314c4c4a38435333000000000000000000000000000000000000000000000000000000000000000000000000000000000000000000000000000000008000000000000000000000000000000000000000000000000000000000000000c00000000000000000000000003cbd57da2f08b3268da07e5c9038c118618286370000000000000000000000000000000000000000000000000000000000000244000000000000000000000000000000000000000000000000000000000000000b553034314c4c4a38435333000000000000000000000000000000000000000000000000000000000000000000000000000000000000000000000000000000000477696c6c00000000000000000000000000000000000000000000000000000000",
        "nonce": "0xbe",
        "chainId": "0x2105"
      },
      "additionalContracts": [],
      "isFixedGasLimit": false
    },
    {
      "hash": null,
      "transactionType": "CALL",
      "contractName": "UserRegistry",
      "contractAddress": "0x40bfec5dee98beba33c9d3eac8991b6d0c694b2d",
      "function": "addUser(string,(string,string,address,uint256))",
      "arguments": [
        "U05LE52HUJW",
        "(U05LE52HUJW, caleb, 0x18F33CEf45817C428d98C4E188A770191fDD4B79, 33)"
      ],
      "transaction": {
        "from": "0x18f33cef45817c428d98c4e188a770191fdd4b79",
        "to": "0x40bfec5dee98beba33c9d3eac8991b6d0c694b2d",
        "gas": "0x329e9",
        "value": "0x0",
        "input": "0x39ef779100000000000000000000000000000000000000000000000000000000000000400000000000000000000000000000000000000000000000000000000000000080000000000000000000000000000000000000000000000000000000000000000b5530354c45353248554a57000000000000000000000000000000000000000000000000000000000000000000000000000000000000000000000000000000008000000000000000000000000000000000000000000000000000000000000000c000000000000000000000000018f33cef45817c428d98c4e188a770191fdd4b790000000000000000000000000000000000000000000000000000000000000021000000000000000000000000000000000000000000000000000000000000000b5530354c45353248554a57000000000000000000000000000000000000000000000000000000000000000000000000000000000000000000000000000000000563616c6562000000000000000000000000000000000000000000000000000000",
        "nonce": "0xbf",
        "chainId": "0x2105"
      },
      "additionalContracts": [],
      "isFixedGasLimit": false
    },
    {
      "hash": null,
      "transactionType": "CALL",
      "contractName": "UserRegistry",
      "contractAddress": "0x40bfec5dee98beba33c9d3eac8991b6d0c694b2d",
      "function": "addUser(string,(string,string,address,uint256))",
      "arguments": [
        "U07G9NS9TUJ",
        "(U07G9NS9TUJ, raihan, 0xb683A2056526162C4771d363204aF41ea8c1eC52, 352)"
      ],
      "transaction": {
        "from": "0x18f33cef45817c428d98c4e188a770191fdd4b79",
        "to": "0x40bfec5dee98beba33c9d3eac8991b6d0c694b2d",
        "gas": "0x32a0a",
        "value": "0x0",
        "input": "0x39ef779100000000000000000000000000000000000000000000000000000000000000400000000000000000000000000000000000000000000000000000000000000080000000000000000000000000000000000000000000000000000000000000000b55303747394e533954554a000000000000000000000000000000000000000000000000000000000000000000000000000000000000000000000000000000008000000000000000000000000000000000000000000000000000000000000000c0000000000000000000000000b683a2056526162c4771d363204af41ea8c1ec520000000000000000000000000000000000000000000000000000000000000160000000000000000000000000000000000000000000000000000000000000000b55303747394e533954554a000000000000000000000000000000000000000000000000000000000000000000000000000000000000000000000000000000000672616968616e0000000000000000000000000000000000000000000000000000",
        "nonce": "0xc0",
        "chainId": "0x2105"
      },
      "additionalContracts": [],
      "isFixedGasLimit": false
    },
    {
      "hash": null,
      "transactionType": "CALL",
      "contractName": "UserRegistry",
      "contractAddress": "0x40bfec5dee98beba33c9d3eac8991b6d0c694b2d",
      "function": "addUser(string,(string,string,address,uint256))",
      "arguments": [
        "U085B6YT21Y",
        "(U085B6YT21Y, pranav, 0x809e0633652448c3539069A4fE764aAcEEa3d8F7, 185)"
      ],
      "transaction": {
        "from": "0x18f33cef45817c428d98c4e188a770191fdd4b79",
        "to": "0x40bfec5dee98beba33c9d3eac8991b6d0c694b2d",
        "gas": "0x3599f",
        "value": "0x0",
        "input": "0x39ef779100000000000000000000000000000000000000000000000000000000000000400000000000000000000000000000000000000000000000000000000000000080000000000000000000000000000000000000000000000000000000000000000b5530383542365954323159000000000000000000000000000000000000000000000000000000000000000000000000000000000000000000000000000000008000000000000000000000000000000000000000000000000000000000000000c0000000000000000000000000809e0633652448c3539069a4fe764aaceea3d8f700000000000000000000000000000000000000000000000000000000000000b9000000000000000000000000000000000000000000000000000000000000000b553038354236595432315900000000000000000000000000000000000000000000000000000000000000000000000000000000000000000000000000000000067072616e61760000000000000000000000000000000000000000000000000000",
        "nonce": "0xc1",
        "chainId": "0x2105"
      },
      "additionalContracts": [],
      "isFixedGasLimit": false
    },
    {
      "hash": null,
      "transactionType": "CALL",
      "contractName": "UserRegistry",
      "contractAddress": "0x40bfec5dee98beba33c9d3eac8991b6d0c694b2d",
      "function": "addUser(string,(string,string,address,uint256))",
      "arguments": [
        "U08386WP9BN",
        "(U08386WP9BN, sushen, 0x4D8D2DDC4560252AE2EdefbaAa6Dd12144155014, 144)"
      ],
      "transaction": {
        "from": "0x18f33cef45817c428d98c4e188a770191fdd4b79",
        "to": "0x40bfec5dee98beba33c9d3eac8991b6d0c694b2d",
        "gas": "0x3599f",
        "value": "0x0",
        "input": "0x39ef779100000000000000000000000000000000000000000000000000000000000000400000000000000000000000000000000000000000000000000000000000000080000000000000000000000000000000000000000000000000000000000000000b553038333836575039424e000000000000000000000000000000000000000000000000000000000000000000000000000000000000000000000000000000008000000000000000000000000000000000000000000000000000000000000000c00000000000000000000000004d8d2ddc4560252ae2edefbaaa6dd121441550140000000000000000000000000000000000000000000000000000000000000090000000000000000000000000000000000000000000000000000000000000000b553038333836575039424e000000000000000000000000000000000000000000000000000000000000000000000000000000000000000000000000000000000673757368656e0000000000000000000000000000000000000000000000000000",
        "nonce": "0xc2",
        "chainId": "0x2105"
      },
      "additionalContracts": [],
      "isFixedGasLimit": false
    },
    {
      "hash": null,
      "transactionType": "CALL",
      "contractName": "UserRegistry",
      "contractAddress": "0x40bfec5dee98beba33c9d3eac8991b6d0c694b2d",
      "function": "addUser(string,(string,string,address,uint256))",
      "arguments": [
        "U08DHAZ7QMN",
        "(U08DHAZ7QMN, oleksii, 0x6fB163354624AF5fb32c671762A8b6f556043D10, 69)"
      ],
      "transaction": {
        "from": "0x18f33cef45817c428d98c4e188a770191fdd4b79",
        "to": "0x40bfec5dee98beba33c9d3eac8991b6d0c694b2d",
        "gas": "0x32a0a",
        "value": "0x0",
        "input": "0x39ef779100000000000000000000000000000000000000000000000000000000000000400000000000000000000000000000000000000000000000000000000000000080000000000000000000000000000000000000000000000000000000000000000b5530384448415a37514d4e000000000000000000000000000000000000000000000000000000000000000000000000000000000000000000000000000000008000000000000000000000000000000000000000000000000000000000000000c00000000000000000000000006fb163354624af5fb32c671762a8b6f556043d100000000000000000000000000000000000000000000000000000000000000045000000000000000000000000000000000000000000000000000000000000000b5530384448415a37514d4e00000000000000000000000000000000000000000000000000000000000000000000000000000000000000000000000000000000076f6c656b73696900000000000000000000000000000000000000000000000000",
        "nonce": "0xc3",
        "chainId": "0x2105"
      },
      "additionalContracts": [],
      "isFixedGasLimit": false
    },
    {
      "hash": null,
      "transactionType": "CALL",
      "contractName": "UserRegistry",
      "contractAddress": "0x40bfec5dee98beba33c9d3eac8991b6d0c694b2d",
      "function": "addUser(string,(string,string,address,uint256))",
      "arguments": [
        "U07PY9SH2HY",
        "(U07PY9SH2HY, jorge, 0xe127d5EB82A055412B536B6CfA81cE14FAa5D8cE, 24)"
      ],
      "transaction": {
        "from": "0x18f33cef45817c428d98c4e188a770191fdd4b79",
        "to": "0x40bfec5dee98beba33c9d3eac8991b6d0c694b2d",
        "gas": "0x329e9",
        "value": "0x0",
        "input": "0x39ef779100000000000000000000000000000000000000000000000000000000000000400000000000000000000000000000000000000000000000000000000000000080000000000000000000000000000000000000000000000000000000000000000b5530375059395348324859000000000000000000000000000000000000000000000000000000000000000000000000000000000000000000000000000000008000000000000000000000000000000000000000000000000000000000000000c0000000000000000000000000e127d5eb82a055412b536b6cfa81ce14faa5d8ce0000000000000000000000000000000000000000000000000000000000000018000000000000000000000000000000000000000000000000000000000000000b553037505939534832485900000000000000000000000000000000000000000000000000000000000000000000000000000000000000000000000000000000056a6f726765000000000000000000000000000000000000000000000000000000",
        "nonce": "0xc4",
        "chainId": "0x2105"
      },
      "additionalContracts": [],
      "isFixedGasLimit": false
    }
  ],
  "receipts": [],
  "libraries": [],
  "pending": [],
  "returns": {},
  "timestamp": 1742764961,
  "chain": 8453,
  "commit": "7721a56"
}